{
  "_format": "hh-sol-artifact-1",
  "contractName": "VoucherKopi",
  "sourceName": "contracts/VoucherKopi.sol",
  "abi": [
    {
      "inputs": [],
      "stateMutability": "nonpayable",
      "type": "constructor"
    },
    {
      "inputs": [
        {
          "internalType": "address",
          "name": "sender",
          "type": "address"
        },
        {
          "internalType": "uint256",
          "name": "tokenId",
          "type": "uint256"
        },
        {
          "internalType": "address",
          "name": "owner",
          "type": "address"
        }
      ],
      "name": "ERC721IncorrectOwner",
      "type": "error"
    },
    {
      "inputs": [
        {
          "internalType": "address",
          "name": "operator",
          "type": "address"
        },
        {
          "internalType": "uint256",
          "name": "tokenId",
          "type": "uint256"
        }
      ],
      "name": "ERC721InsufficientApproval",
      "type": "error"
    },
    {
      "inputs": [
        {
          "internalType": "address",
          "name": "approver",
          "type": "address"
        }
      ],
      "name": "ERC721InvalidApprover",
      "type": "error"
    },
    {
      "inputs": [
        {
          "internalType": "address",
          "name": "operator",
          "type": "address"
        }
      ],
      "name": "ERC721InvalidOperator",
      "type": "error"
    },
    {
      "inputs": [
        {
          "internalType": "address",
          "name": "owner",
          "type": "address"
        }
      ],
      "name": "ERC721InvalidOwner",
      "type": "error"
    },
    {
      "inputs": [
        {
          "internalType": "address",
          "name": "receiver",
          "type": "address"
        }
      ],
      "name": "ERC721InvalidReceiver",
      "type": "error"
    },
    {
      "inputs": [
        {
          "internalType": "address",
          "name": "sender",
          "type": "address"
        }
      ],
      "name": "ERC721InvalidSender",
      "type": "error"
    },
    {
      "inputs": [
        {
          "internalType": "uint256",
          "name": "tokenId",
          "type": "uint256"
        }
      ],
      "name": "ERC721NonexistentToken",
      "type": "error"
    },
    {
      "inputs": [
        {
          "internalType": "address",
          "name": "owner",
          "type": "address"
        }
      ],
      "name": "OwnableInvalidOwner",
      "type": "error"
    },
    {
      "inputs": [
        {
          "internalType": "address",
          "name": "account",
          "type": "address"
        }
      ],
      "name": "OwnableUnauthorizedAccount",
      "type": "error"
    },
    {
      "anonymous": false,
      "inputs": [
        {
          "indexed": true,
          "internalType": "address",
          "name": "owner",
          "type": "address"
        },
        {
          "indexed": true,
          "internalType": "address",
          "name": "approved",
          "type": "address"
        },
        {
          "indexed": true,
          "internalType": "uint256",
          "name": "tokenId",
          "type": "uint256"
        }
      ],
      "name": "Approval",
      "type": "event"
    },
    {
      "anonymous": false,
      "inputs": [
        {
          "indexed": true,
          "internalType": "address",
          "name": "owner",
          "type": "address"
        },
        {
          "indexed": true,
          "internalType": "address",
          "name": "operator",
          "type": "address"
        },
        {
          "indexed": false,
          "internalType": "bool",
          "name": "approved",
          "type": "bool"
        }
      ],
      "name": "ApprovalForAll",
      "type": "event"
    },
    {
      "anonymous": false,
      "inputs": [
        {
          "indexed": false,
          "internalType": "uint256",
          "name": "_fromTokenId",
          "type": "uint256"
        },
        {
          "indexed": false,
          "internalType": "uint256",
          "name": "_toTokenId",
          "type": "uint256"
        }
      ],
      "name": "BatchMetadataUpdate",
      "type": "event"
    },
    {
      "anonymous": false,
      "inputs": [
        {
          "indexed": false,
          "internalType": "uint256",
          "name": "_tokenId",
          "type": "uint256"
        }
      ],
      "name": "MetadataUpdate",
      "type": "event"
    },
    {
      "anonymous": false,
      "inputs": [
        {
          "indexed": true,
          "internalType": "address",
          "name": "previousOwner",
          "type": "address"
        },
        {
          "indexed": true,
          "internalType": "address",
          "name": "newOwner",
          "type": "address"
        }
      ],
      "name": "OwnershipTransferred",
      "type": "event"
    },
    {
      "anonymous": false,
      "inputs": [
        {
          "indexed": true,
          "internalType": "address",
          "name": "from",
          "type": "address"
        },
        {
          "indexed": true,
          "internalType": "address",
          "name": "to",
          "type": "address"
        },
        {
          "indexed": true,
          "internalType": "uint256",
          "name": "tokenId",
          "type": "uint256"
        }
      ],
      "name": "Transfer",
      "type": "event"
    },
    {
      "inputs": [
        {
          "internalType": "address",
          "name": "to",
          "type": "address"
        },
        {
          "internalType": "uint256",
          "name": "tokenId",
          "type": "uint256"
        }
      ],
      "name": "approve",
      "outputs": [],
      "stateMutability": "nonpayable",
      "type": "function"
    },
    {
      "inputs": [
        {
          "internalType": "address",
          "name": "owner",
          "type": "address"
        }
      ],
      "name": "balanceOf",
      "outputs": [
        {
          "internalType": "uint256",
          "name": "",
          "type": "uint256"
        }
      ],
      "stateMutability": "view",
      "type": "function"
    },
    {
      "inputs": [],
      "name": "getAllVouchers",
      "outputs": [
        {
          "components": [
            {
              "internalType": "uint256",
              "name": "tokenId",
              "type": "uint256"
            },
            {
              "internalType": "address",
              "name": "owner",
              "type": "address"
            },
            {
              "internalType": "string",
              "name": "tokenURI",
              "type": "string"
            },
            {
              "internalType": "enum VoucherKopi.VoucherType",
              "name": "voucherType",
              "type": "uint8"
            },
            {
              "internalType": "bool",
              "name": "isRedeemed",
              "type": "bool"
            }
          ],
          "internalType": "struct VoucherKopi.VoucherData[]",
          "name": "",
          "type": "tuple[]"
        }
      ],
      "stateMutability": "view",
      "type": "function"
    },
    {
      "inputs": [
        {
          "internalType": "uint256",
          "name": "tokenId",
          "type": "uint256"
        }
      ],
      "name": "getApproved",
      "outputs": [
        {
          "internalType": "address",
          "name": "",
          "type": "address"
        }
      ],
      "stateMutability": "view",
      "type": "function"
    },
    {
      "inputs": [
        {
          "internalType": "uint256",
          "name": "tokenId",
          "type": "uint256"
        }
      ],
      "name": "getVoucherDetails",
      "outputs": [
        {
          "internalType": "enum VoucherKopi.VoucherType",
          "name": "",
          "type": "uint8"
        },
        {
          "internalType": "bool",
          "name": "",
          "type": "bool"
        }
      ],
      "stateMutability": "view",
      "type": "function"
    },
    {
      "inputs": [
        {
          "internalType": "address",
          "name": "owner",
          "type": "address"
        }
      ],
      "name": "getVouchersByOwner",
      "outputs": [
        {
          "components": [
            {
              "internalType": "uint256",
              "name": "tokenId",
              "type": "uint256"
            },
            {
              "internalType": "address",
              "name": "owner",
              "type": "address"
            },
            {
              "internalType": "string",
              "name": "tokenURI",
              "type": "string"
            },
            {
              "internalType": "enum VoucherKopi.VoucherType",
              "name": "voucherType",
              "type": "uint8"
            },
            {
              "internalType": "bool",
              "name": "isRedeemed",
              "type": "bool"
            }
          ],
          "internalType": "struct VoucherKopi.VoucherData[]",
          "name": "",
          "type": "tuple[]"
        }
      ],
      "stateMutability": "view",
      "type": "function"
    },
    {
      "inputs": [
        {
          "internalType": "address",
          "name": "owner",
          "type": "address"
        },
        {
          "internalType": "address",
          "name": "operator",
          "type": "address"
        }
      ],
      "name": "isApprovedForAll",
      "outputs": [
        {
          "internalType": "bool",
          "name": "",
          "type": "bool"
        }
      ],
      "stateMutability": "view",
      "type": "function"
    },
    {
      "inputs": [
        {
          "internalType": "address",
          "name": "recipient",
          "type": "address"
        },
        {
          "internalType": "string",
          "name": "tokenURI",
          "type": "string"
        },
        {
          "internalType": "enum VoucherKopi.VoucherType",
          "name": "voucherType",
          "type": "uint8"
        }
      ],
      "name": "mintVoucher",
      "outputs": [
        {
          "internalType": "uint256",
          "name": "",
          "type": "uint256"
        }
      ],
      "stateMutability": "nonpayable",
      "type": "function"
    },
    {
      "inputs": [],
      "name": "name",
      "outputs": [
        {
          "internalType": "string",
          "name": "",
          "type": "string"
        }
      ],
      "stateMutability": "view",
      "type": "function"
    },
    {
      "inputs": [],
      "name": "owner",
      "outputs": [
        {
          "internalType": "address",
          "name": "",
          "type": "address"
        }
      ],
      "stateMutability": "view",
      "type": "function"
    },
    {
      "inputs": [
        {
          "internalType": "uint256",
          "name": "tokenId",
          "type": "uint256"
        }
      ],
      "name": "ownerOf",
      "outputs": [
        {
          "internalType": "address",
          "name": "",
          "type": "address"
        }
      ],
      "stateMutability": "view",
      "type": "function"
    },
    {
      "inputs": [
        {
          "internalType": "uint256",
          "name": "tokenId",
          "type": "uint256"
        }
      ],
      "name": "redeemVoucher",
      "outputs": [],
      "stateMutability": "nonpayable",
      "type": "function"
    },
    {
      "inputs": [
        {
          "internalType": "uint256",
          "name": "tokenId",
          "type": "uint256"
        }
      ],
      "name": "redeemVoucherByOwner",
      "outputs": [],
      "stateMutability": "nonpayable",
      "type": "function"
    },
    {
      "inputs": [
        {
          "internalType": "address",
          "name": "",
          "type": "address"
        }
      ],
      "name": "redeemedCount",
      "outputs": [
        {
          "internalType": "uint256",
          "name": "",
          "type": "uint256"
        }
      ],
      "stateMutability": "view",
      "type": "function"
    },
    {
      "inputs": [],
      "name": "renounceOwnership",
      "outputs": [],
      "stateMutability": "nonpayable",
      "type": "function"
    },
    {
      "inputs": [
        {
          "internalType": "address",
          "name": "from",
          "type": "address"
        },
        {
          "internalType": "address",
          "name": "to",
          "type": "address"
        },
        {
          "internalType": "uint256",
          "name": "tokenId",
          "type": "uint256"
        }
      ],
      "name": "safeTransferFrom",
      "outputs": [],
      "stateMutability": "nonpayable",
      "type": "function"
    },
    {
      "inputs": [
        {
          "internalType": "address",
          "name": "from",
          "type": "address"
        },
        {
          "internalType": "address",
          "name": "to",
          "type": "address"
        },
        {
          "internalType": "uint256",
          "name": "tokenId",
          "type": "uint256"
        },
        {
          "internalType": "bytes",
          "name": "data",
          "type": "bytes"
        }
      ],
      "name": "safeTransferFrom",
      "outputs": [],
      "stateMutability": "nonpayable",
      "type": "function"
    },
    {
      "inputs": [
        {
          "internalType": "address",
          "name": "operator",
          "type": "address"
        },
        {
          "internalType": "bool",
          "name": "approved",
          "type": "bool"
        }
      ],
      "name": "setApprovalForAll",
      "outputs": [],
      "stateMutability": "nonpayable",
      "type": "function"
    },
    {
      "inputs": [
        {
          "internalType": "bytes4",
          "name": "interfaceId",
          "type": "bytes4"
        }
      ],
      "name": "supportsInterface",
      "outputs": [
        {
          "internalType": "bool",
          "name": "",
          "type": "bool"
        }
      ],
      "stateMutability": "view",
      "type": "function"
    },
    {
      "inputs": [],
      "name": "symbol",
      "outputs": [
        {
          "internalType": "string",
          "name": "",
          "type": "string"
        }
      ],
      "stateMutability": "view",
      "type": "function"
    },
    {
      "inputs": [
        {
          "internalType": "uint256",
          "name": "tokenId",
          "type": "uint256"
        }
      ],
      "name": "tokenURI",
      "outputs": [
        {
          "internalType": "string",
          "name": "",
          "type": "string"
        }
      ],
      "stateMutability": "view",
      "type": "function"
    },
    {
      "inputs": [
        {
          "internalType": "address",
          "name": "from",
          "type": "address"
        },
        {
          "internalType": "address",
          "name": "to",
          "type": "address"
        },
        {
          "internalType": "uint256",
          "name": "tokenId",
          "type": "uint256"
        }
      ],
      "name": "transferFrom",
      "outputs": [],
      "stateMutability": "nonpayable",
      "type": "function"
    },
    {
      "inputs": [
        {
          "internalType": "address",
          "name": "newOwner",
          "type": "address"
        }
      ],
      "name": "transferOwnership",
      "outputs": [],
      "stateMutability": "nonpayable",
      "type": "function"
    },
    {
      "inputs": [
        {
          "internalType": "uint256",
          "name": "",
          "type": "uint256"
        }
      ],
      "name": "voucherDetails",
      "outputs": [
        {
          "internalType": "enum VoucherKopi.VoucherType",
          "name": "voucherType",
          "type": "uint8"
        },
        {
          "internalType": "bool",
          "name": "isRedeemed",
          "type": "bool"
        }
      ],
      "stateMutability": "view",
      "type": "function"
    }
  ],
  "bytecode": "0x60806040523480156200001157600080fd5b50336040518060400160405280600c81526020017f566f7563686572204b6f706900000000000000000000000000000000000000008152506040518060400160405280600481526020017f4b4f50490000000000000000000000000000000000000000000000000000000081525081600090816200009091906200047a565b508060019081620000a291906200047a565b505050600073ffffffffffffffffffffffffffffffffffffffff168173ffffffffffffffffffffffffffffffffffffffff16036200011a5760006040517f1e4fbdf7000000000000000000000000000000000000000000000000000000008152600401620001119190620005a6565b60405180910390fd5b6200012b816200013a60201b60201c565b506001600881905550620005c3565b6000600760009054906101000a900473ffffffffffffffffffffffffffffffffffffffff16905081600760006101000a81548173ffffffffffffffffffffffffffffffffffffffff021916908373ffffffffffffffffffffffffffffffffffffffff1602179055508173ffffffffffffffffffffffffffffffffffffffff168173ffffffffffffffffffffffffffffffffffffffff167f8be0079c531659141344cd1fd0a4f28419497f9722a3daafe3b4186f6b6457e060405160405180910390a35050565b600081519050919050565b7f4e487b7100000000000000000000000000000000000000000000000000000000600052604160045260246000fd5b7f4e487b7100000000000000000000000000000000000000000000000000000000600052602260045260246000fd5b600060028204905060018216806200028257607f821691505b6020821081036200029857620002976200023a565b5b50919050565b60008190508160005260206000209050919050565b60006020601f8301049050919050565b600082821b905092915050565b600060088302620003027fffffffffffffffffffffffffffffffffffffffffffffffffffffffffffffffff82620002c3565b6200030e8683620002c3565b95508019841693508086168417925050509392505050565b6000819050919050565b6000819050919050565b60006200035b620003556200034f8462000326565b62000330565b62000326565b9050919050565b6000819050919050565b62000377836200033a565b6200038f620003868262000362565b848454620002d0565b825550505050565b600090565b620003a662000397565b620003b38184846200036c565b505050565b5b81811015620003db57620003cf6000826200039c565b600181019050620003b9565b5050565b601f8211156200042a57620003f4816200029e565b620003ff84620002b3565b810160208510156200040f578190505b620004276200041e85620002b3565b830182620003b8565b50505b505050565b600082821c905092915050565b60006200044f600019846008026200042f565b1980831691505092915050565b60006200046a83836200043c565b9150826002028217905092915050565b620004858262000200565b67ffffffffffffffff811115620004a157620004a06200020b565b5b620004ad825462000269565b620004ba828285620003df565b600060209050601f831160018114620004f25760008415620004dd578287015190505b620004e985826200045c565b86555062000559565b601f19841662000502866200029e565b60005b828110156200052c5784890151825560018201915060208501945060208101905062000505565b868310156200054c578489015162000548601f8916826200043c565b8355505b6001600288020188555050505b505050505050565b600073ffffffffffffffffffffffffffffffffffffffff82169050919050565b60006200058e8262000561565b9050919050565b620005a08162000581565b82525050565b6000602082019050620005bd600083018462000595565b92915050565b61333d80620005d36000396000f3fe608060405234801561001057600080fd5b50600436106101585760003560e01c806370a08231116100c3578063c4cf24381161007c578063c4cf2438146103d8578063c87b56dd14610409578063ca2ffdfb14610439578063d7a0f59f14610469578063e985e9c514610485578063f2fde38b146104b557610158565b806370a082311461032a578063715018a61461035a5780638da5cb5b1461036457806395d89b4114610382578063a22cb465146103a0578063b88d4fde146103bc57610158565b8063202d179311610115578063202d17931461024357806323b872dd1461027357806342842e0e1461028f57806352a67969146102ab5780636352211e146102dc5780636f7311c91461030c57610158565b806301ffc9a71461015d57806306fdde031461018d578063081812fc146101ab578063095ea7b3146101db5780630b53286e146101f75780631c6d6b5e14610227575b600080fd5b610177600480360381019061017291906123c6565b6104d1565b604051610184919061240e565b60405180910390f35b6101956104e3565b6040516101a291906124b9565b60405180910390f35b6101c560048036038101906101c09190612511565b610575565b6040516101d2919061257f565b60405180910390f35b6101f560048036038101906101f091906125c6565b610591565b005b610211600480360381019061020c9190612606565b6105a7565b60405161021e9190612859565b60405180910390f35b610241600480360381019061023c9190612511565b610740565b005b61025d60048036038101906102589190612606565b6107c3565b60405161026a919061288a565b60405180910390f35b61028d600480360381019061028891906128a5565b6107db565b005b6102a960048036038101906102a491906128a5565b6108dd565b005b6102c560048036038101906102c09190612511565b6108fd565b6040516102d3929190612907565b60405180910390f35b6102f660048036038101906102f19190612511565b61093b565b604051610303919061257f565b60405180910390f35b61031461094d565b6040516103219190612859565b60405180910390f35b610344600480360381019061033f9190612606565b610a8d565b604051610351919061288a565b60405180910390f35b610362610b47565b005b61036c610b5b565b604051610379919061257f565b60405180910390f35b61038a610b85565b60405161039791906124b9565b60405180910390f35b6103ba60048036038101906103b5919061295c565b610c17565b005b6103d660048036038101906103d19190612ad1565b610c2d565b005b6103f260048036038101906103ed9190612511565b610c52565b604051610400929190612907565b60405180910390f35b610423600480360381019061041e9190612511565b610c9a565b60405161043091906124b9565b60405180910390f35b610453600480360381019061044e9190612bd9565b610dad565b604051610460919061288a565b60405180910390f35b610483600480360381019061047e9190612511565b610ef2565b005b61049f600480360381019061049a9190612c4d565b610f15565b6040516104ac919061240e565b60405180910390f35b6104cf60048036038101906104ca9190612606565b610fa9565b005b60006104dc8261102f565b9050919050565b6060600080546104f290612cbc565b80601f016020809104026020016040519081016040528092919081815260200182805461051e90612cbc565b801561056b5780601f106105405761010080835404028352916020019161056b565b820191906000526020600020905b81548152906001019060200180831161054e57829003601f168201915b5050505050905090565b600061058082611090565b5061058a82611118565b9050919050565b6105a3828261059e611155565b61115d565b5050565b606060006105b483610a8d565b90506000810361061b57600067ffffffffffffffff8111156105d9576105d86129a6565b5b60405190808252806020026020018201604052801561061257816020015b6105ff612301565b8152602001906001900390816105f75790505b5091505061073b565b60008167ffffffffffffffff811115610637576106366129a6565b5b60405190808252806020026020018201604052801561067057816020015b61065d612301565b8152602001906001900390816106555790505b509050600080600190505b60085481101561073357600b600082815260200190815260200160002060009054906101000a900460ff1680156106e557508573ffffffffffffffffffffffffffffffffffffffff166106cd8261093b565b73ffffffffffffffffffffffffffffffffffffffff16145b15610720576106f38161116f565b83838151811061070657610705612ced565b5b6020026020010181905250818061071c90612d4b565b9250505b808061072b90612d4b565b91505061067b565b508193505050505b919050565b3373ffffffffffffffffffffffffffffffffffffffff166107608261093b565b73ffffffffffffffffffffffffffffffffffffffff16146107b6576040517f08c379a00000000000000000000000000000000000000000000000000000000081526004016107ad90612e05565b60405180910390fd5b6107c08133611219565b50565b600a6020528060005260406000206000915090505481565b600073ffffffffffffffffffffffffffffffffffffffff168273ffffffffffffffffffffffffffffffffffffffff160361084d5760006040517f64a0ae92000000000000000000000000000000000000000000000000000000008152600401610844919061257f565b60405180910390fd5b6000610861838361085c611155565b6112f9565b90508373ffffffffffffffffffffffffffffffffffffffff168173ffffffffffffffffffffffffffffffffffffffff16146108d7578382826040517f64283d7b0000000000000000000000000000000000000000000000000000000081526004016108ce93929190612e25565b60405180910390fd5b50505050565b6108f883838360405180602001604052806000815250610c2d565b505050565b60096020528060005260406000206000915090508060000160009054906101000a900460ff16908060000160019054906101000a900460ff16905082565b600061094682611090565b9050919050565b6060600080600190505b6008548110156109a957600b600082815260200190815260200160002060009054906101000a900460ff161561099657818061099290612d4b565b9250505b80806109a190612d4b565b915050610957565b5060008167ffffffffffffffff8111156109c6576109c56129a6565b5b6040519080825280602002602001820160405280156109ff57816020015b6109ec612301565b8152602001906001900390816109e45790505b509050600080600190505b600854811015610a8357600b600082815260200190815260200160002060009054906101000a900460ff1615610a7057610a438161116f565b838381518110610a5657610a55612ced565b5b60200260200101819052508180610a6c90612d4b565b9250505b8080610a7b90612d4b565b915050610a0a565b5081935050505090565b60008073ffffffffffffffffffffffffffffffffffffffff168273ffffffffffffffffffffffffffffffffffffffff1603610b005760006040517f89c62b64000000000000000000000000000000000000000000000000000000008152600401610af7919061257f565b60405180910390fd5b600360008373ffffffffffffffffffffffffffffffffffffffff1673ffffffffffffffffffffffffffffffffffffffff168152602001908152602001600020549050919050565b610b4f61136f565b610b5960006113f6565b565b6000600760009054906101000a900473ffffffffffffffffffffffffffffffffffffffff16905090565b606060018054610b9490612cbc565b80601f0160208091040260200160405190810160405280929190818152602001828054610bc090612cbc565b8015610c0d5780601f10610be257610100808354040283529160200191610c0d565b820191906000526020600020905b815481529060010190602001808311610bf057829003601f168201915b5050505050905090565b610c29610c22611155565b83836114bc565b5050565b610c388484846107db565b610c4c610c43611155565b8585858561162b565b50505050565b60008060006009600085815260200190815260200160002090508060000160009054906101000a900460ff168160000160019054906101000a900460ff169250925050915091565b6060610ca582611090565b506000600660008481526020019081526020016000208054610cc690612cbc565b80601f0160208091040260200160405190810160405280929190818152602001828054610cf290612cbc565b8015610d3f5780601f10610d1457610100808354040283529160200191610d3f565b820191906000526020600020905b815481529060010190602001808311610d2257829003601f168201915b505050505090506000610d506117dc565b90506000815103610d65578192505050610da8565b600082511115610d9a578082604051602001610d82929190612e98565b60405160208183030381529060405292505050610da8565b610da3846117f3565b925050505b919050565b6000610db761136f565b600060086000815480929190610dcc90612d4b565b919050559050610ddc868261185c565b610e2a8186868080601f016020809104026020016040519081016040528093929190818152602001838380828437600081840152601f19601f8201169050808301925050505050505061187a565b6040518060400160405280846002811115610e4857610e476126c7565b5b8152602001600015158152506009600083815260200190815260200160002060008201518160000160006101000a81548160ff02191690836002811115610e9257610e916126c7565b5b021790555060208201518160000160016101000a81548160ff0219169083151502179055509050506001600b600083815260200190815260200160002060006101000a81548160ff02191690831515021790555080915050949350505050565b610efa61136f565b6000610f058261093b565b9050610f118282611219565b5050565b6000600560008473ffffffffffffffffffffffffffffffffffffffff1673ffffffffffffffffffffffffffffffffffffffff16815260200190815260200160002060008373ffffffffffffffffffffffffffffffffffffffff1673ffffffffffffffffffffffffffffffffffffffff16815260200190815260200160002060009054906101000a900460ff16905092915050565b610fb161136f565b600073ffffffffffffffffffffffffffffffffffffffff168173ffffffffffffffffffffffffffffffffffffffff16036110235760006040517f1e4fbdf700000000000000000000000000000000000000000000000000000000815260040161101a919061257f565b60405180910390fd5b61102c816113f6565b50565b6000634906490660e01b7bffffffffffffffffffffffffffffffffffffffffffffffffffffffff1916827bffffffffffffffffffffffffffffffffffffffffffffffffffffffff191614806110895750611088826118d6565b5b9050919050565b60008061109c836119b8565b9050600073ffffffffffffffffffffffffffffffffffffffff168173ffffffffffffffffffffffffffffffffffffffff160361110f57826040517f7e273289000000000000000000000000000000000000000000000000000000008152600401611106919061288a565b60405180910390fd5b80915050919050565b60006004600083815260200190815260200160002060009054906101000a900473ffffffffffffffffffffffffffffffffffffffff169050919050565b600033905090565b61116a83838360016119f5565b505050565b611177612301565b60006009600084815260200190815260200160002090506040518060a001604052808481526020016111a88561093b565b73ffffffffffffffffffffffffffffffffffffffff1681526020016111cc85610c9a565b81526020018260000160009054906101000a900460ff1660028111156111f5576111f46126c7565b5b81526020018260000160019054906101000a900460ff161515815250915050919050565b60006009600084815260200190815260200160002090508060000160019054906101000a900460ff1615611282576040517f08c379a000000000000000000000000000000000000000000000000000000000815260040161127990612f2e565b60405180910390fd5b60018160000160016101000a81548160ff021916908315150217905550600a60008373ffffffffffffffffffffffffffffffffffffffff1673ffffffffffffffffffffffffffffffffffffffff16815260200190815260200160002060008154809291906112ef90612d4b565b9190505550505050565b60008073ffffffffffffffffffffffffffffffffffffffff168473ffffffffffffffffffffffffffffffffffffffff160361135b576000600b600085815260200190815260200160002060006101000a81548160ff0219169083151502179055505b611366848484611bba565b90509392505050565b611377611155565b73ffffffffffffffffffffffffffffffffffffffff16611395610b5b565b73ffffffffffffffffffffffffffffffffffffffff16146113f4576113b8611155565b6040517f118cdaa70000000000000000000000000000000000000000000000000000000081526004016113eb919061257f565b60405180910390fd5b565b6000600760009054906101000a900473ffffffffffffffffffffffffffffffffffffffff16905081600760006101000a81548173ffffffffffffffffffffffffffffffffffffffff021916908373ffffffffffffffffffffffffffffffffffffffff1602179055508173ffffffffffffffffffffffffffffffffffffffff168173ffffffffffffffffffffffffffffffffffffffff167f8be0079c531659141344cd1fd0a4f28419497f9722a3daafe3b4186f6b6457e060405160405180910390a35050565b600073ffffffffffffffffffffffffffffffffffffffff168273ffffffffffffffffffffffffffffffffffffffff160361152d57816040517f5b08ba18000000000000000000000000000000000000000000000000000000008152600401611524919061257f565b60405180910390fd5b80600560008573ffffffffffffffffffffffffffffffffffffffff1673ffffffffffffffffffffffffffffffffffffffff16815260200190815260200160002060008473ffffffffffffffffffffffffffffffffffffffff1673ffffffffffffffffffffffffffffffffffffffff16815260200190815260200160002060006101000a81548160ff0219169083151502179055508173ffffffffffffffffffffffffffffffffffffffff168373ffffffffffffffffffffffffffffffffffffffff167f17307eab39ab6107e8899845ad3d59bd9653f200f220920489ca2b5937696c318360405161161e919061240e565b60405180910390a3505050565b60008373ffffffffffffffffffffffffffffffffffffffff163b11156117d5578273ffffffffffffffffffffffffffffffffffffffff1663150b7a02868685856040518563ffffffff1660e01b815260040161168a9493929190612fa3565b6020604051808303816000875af19250505080156116c657506040513d601f19601f820116820180604052508101906116c39190613004565b60015b61174a573d80600081146116f6576040519150601f19603f3d011682016040523d82523d6000602084013e6116fb565b606091505b50600081510361174257836040517f64a0ae92000000000000000000000000000000000000000000000000000000008152600401611739919061257f565b60405180910390fd5b805160208201fd5b63150b7a0260e01b7bffffffffffffffffffffffffffffffffffffffffffffffffffffffff1916817bffffffffffffffffffffffffffffffffffffffffffffffffffffffff1916146117d357836040517f64a0ae920000000000000000000000000000000000000000000000000000000081526004016117ca919061257f565b60405180910390fd5b505b5050505050565b606060405180602001604052806000815250905090565b60606117fe82611090565b5060006118096117dc565b905060008151116118295760405180602001604052806000815250611854565b8061183384611dd4565b604051602001611844929190612e98565b6040516020818303038152906040525b915050919050565b611876828260405180602001604052806000815250611ea2565b5050565b8060066000848152602001908152602001600020908161189a91906131dd565b507ff8e1a15aba9398e019f0b49df1a4fde98ee17ae345cb5f6b5e2c27f5033e8ce7826040516118ca919061288a565b60405180910390a15050565b60007f80ac58cd000000000000000000000000000000000000000000000000000000007bffffffffffffffffffffffffffffffffffffffffffffffffffffffff1916827bffffffffffffffffffffffffffffffffffffffffffffffffffffffff191614806119a157507f5b5e139f000000000000000000000000000000000000000000000000000000007bffffffffffffffffffffffffffffffffffffffffffffffffffffffff1916827bffffffffffffffffffffffffffffffffffffffffffffffffffffffff1916145b806119b157506119b082611ec6565b5b9050919050565b60006002600083815260200190815260200160002060009054906101000a900473ffffffffffffffffffffffffffffffffffffffff169050919050565b8080611a2e5750600073ffffffffffffffffffffffffffffffffffffffff168273ffffffffffffffffffffffffffffffffffffffff1614155b15611b62576000611a3e84611090565b9050600073ffffffffffffffffffffffffffffffffffffffff168373ffffffffffffffffffffffffffffffffffffffff1614158015611aa957508273ffffffffffffffffffffffffffffffffffffffff168173ffffffffffffffffffffffffffffffffffffffff1614155b8015611abc5750611aba8184610f15565b155b15611afe57826040517fa9fbf51f000000000000000000000000000000000000000000000000000000008152600401611af5919061257f565b60405180910390fd5b8115611b6057838573ffffffffffffffffffffffffffffffffffffffff168273ffffffffffffffffffffffffffffffffffffffff167f8c5be1e5ebec7d5bd14f71427d1e84f3dd0314c0f7b2291e5b200ac8c7c3b92560405160405180910390a45b505b836004600085815260200190815260200160002060006101000a81548173ffffffffffffffffffffffffffffffffffffffff021916908373ffffffffffffffffffffffffffffffffffffffff16021790555050505050565b600080611bc6846119b8565b9050600073ffffffffffffffffffffffffffffffffffffffff168373ffffffffffffffffffffffffffffffffffffffff1614611c0857611c07818486611f30565b5b600073ffffffffffffffffffffffffffffffffffffffff168173ffffffffffffffffffffffffffffffffffffffff1614611c9957611c4a6000856000806119f5565b6001600360008373ffffffffffffffffffffffffffffffffffffffff1673ffffffffffffffffffffffffffffffffffffffff168152602001908152602001600020600082825403925050819055505b600073ffffffffffffffffffffffffffffffffffffffff168573ffffffffffffffffffffffffffffffffffffffff1614611d1c576001600360008773ffffffffffffffffffffffffffffffffffffffff1673ffffffffffffffffffffffffffffffffffffffff168152602001908152602001600020600082825401925050819055505b846002600086815260200190815260200160002060006101000a81548173ffffffffffffffffffffffffffffffffffffffff021916908373ffffffffffffffffffffffffffffffffffffffff160217905550838573ffffffffffffffffffffffffffffffffffffffff168273ffffffffffffffffffffffffffffffffffffffff167fddf252ad1be2c89b69c2b068fc378daa952ba7f163c4a11628f55a4df523b3ef60405160405180910390a4809150509392505050565b606060006001611de384611ff4565b01905060008167ffffffffffffffff811115611e0257611e016129a6565b5b6040519080825280601f01601f191660200182016040528015611e345781602001600182028036833780820191505090505b509050600082602083010190505b600115611e97578080600190039150507f3031323334353637383961626364656600000000000000000000000000000000600a86061a8153600a8581611e8b57611e8a6132af565b5b04945060008503611e42575b819350505050919050565b611eac8383612147565b611ec1611eb7611155565b600085858561162b565b505050565b60007f01ffc9a7000000000000000000000000000000000000000000000000000000007bffffffffffffffffffffffffffffffffffffffffffffffffffffffff1916827bffffffffffffffffffffffffffffffffffffffffffffffffffffffff1916149050919050565b611f3b838383612240565b611fef57600073ffffffffffffffffffffffffffffffffffffffff168373ffffffffffffffffffffffffffffffffffffffff1603611fb057806040517f7e273289000000000000000000000000000000000000000000000000000000008152600401611fa7919061288a565b60405180910390fd5b81816040517f177e802f000000000000000000000000000000000000000000000000000000008152600401611fe69291906132de565b60405180910390fd5b505050565b600080600090507a184f03e93ff9f4daa797ed6e38ed64bf6a1f0100000000000000008310612052577a184f03e93ff9f4daa797ed6e38ed64bf6a1f0100000000000000008381612048576120476132af565b5b0492506040810190505b6d04ee2d6d415b85acef8100000000831061208f576d04ee2d6d415b85acef81000000008381612085576120846132af565b5b0492506020810190505b662386f26fc1000083106120be57662386f26fc1000083816120b4576120b36132af565b5b0492506010810190505b6305f5e10083106120e7576305f5e10083816120dd576120dc6132af565b5b0492506008810190505b612710831061210c576127108381612102576121016132af565b5b0492506004810190505b6064831061212f5760648381612125576121246132af565b5b0492506002810190505b600a831061213e576001810190505b80915050919050565b600073ffffffffffffffffffffffffffffffffffffffff168273ffffffffffffffffffffffffffffffffffffffff16036121b95760006040517f64a0ae920000000000000000000000000000000000000000000000000000000081526004016121b0919061257f565b60405180910390fd5b60006121c7838360006112f9565b9050600073ffffffffffffffffffffffffffffffffffffffff168173ffffffffffffffffffffffffffffffffffffffff161461223b5760006040517f73c6ac6e000000000000000000000000000000000000000000000000000000008152600401612232919061257f565b60405180910390fd5b505050565b60008073ffffffffffffffffffffffffffffffffffffffff168373ffffffffffffffffffffffffffffffffffffffff16141580156122f857508273ffffffffffffffffffffffffffffffffffffffff168473ffffffffffffffffffffffffffffffffffffffff1614806122b957506122b88484610f15565b5b806122f757508273ffffffffffffffffffffffffffffffffffffffff166122df83611118565b73ffffffffffffffffffffffffffffffffffffffff16145b5b90509392505050565b6040518060a0016040528060008152602001600073ffffffffffffffffffffffffffffffffffffffff168152602001606081526020016000600281111561234b5761234a6126c7565b5b81526020016000151581525090565b6000604051905090565b600080fd5b600080fd5b60007fffffffff0000000000000000000000000000000000000000000000000000000082169050919050565b6123a38161236e565b81146123ae57600080fd5b50565b6000813590506123c08161239a565b92915050565b6000602082840312156123dc576123db612364565b5b60006123ea848285016123b1565b91505092915050565b60008115159050919050565b612408816123f3565b82525050565b600060208201905061242360008301846123ff565b92915050565b600081519050919050565b600082825260208201905092915050565b60005b83811015612463578082015181840152602081019050612448565b60008484015250505050565b6000601f19601f8301169050919050565b600061248b82612429565b6124958185612434565b93506124a5818560208601612445565b6124ae8161246f565b840191505092915050565b600060208201905081810360008301526124d38184612480565b905092915050565b6000819050919050565b6124ee816124db565b81146124f957600080fd5b50565b60008135905061250b816124e5565b92915050565b60006020828403121561252757612526612364565b5b6000612535848285016124fc565b91505092915050565b600073ffffffffffffffffffffffffffffffffffffffff82169050919050565b60006125698261253e565b9050919050565b6125798161255e565b82525050565b60006020820190506125946000830184612570565b92915050565b6125a38161255e565b81146125ae57600080fd5b50565b6000813590506125c08161259a565b92915050565b600080604083850312156125dd576125dc612364565b5b60006125eb858286016125b1565b92505060206125fc858286016124fc565b9150509250929050565b60006020828403121561261c5761261b612364565b5b600061262a848285016125b1565b91505092915050565b600081519050919050565b600082825260208201905092915050565b6000819050602082019050919050565b612668816124db565b82525050565b6126778161255e565b82525050565b600082825260208201905092915050565b600061269982612429565b6126a3818561267d565b93506126b3818560208601612445565b6126bc8161246f565b840191505092915050565b7f4e487b7100000000000000000000000000000000000000000000000000000000600052602160045260246000fd5b60038110612707576127066126c7565b5b50565b6000819050612718826126f6565b919050565b60006127288261270a565b9050919050565b6127388161271d565b82525050565b612747816123f3565b82525050565b600060a083016000830151612765600086018261265f565b506020830151612778602086018261266e565b5060408301518482036040860152612790828261268e565b91505060608301516127a5606086018261272f565b5060808301516127b8608086018261273e565b508091505092915050565b60006127cf838361274d565b905092915050565b6000602082019050919050565b60006127ef82612633565b6127f9818561263e565b93508360208202850161280b8561264f565b8060005b85811015612847578484038952815161282885826127c3565b9450612833836127d7565b925060208a0199505060018101905061280f565b50829750879550505050505092915050565b6000602082019050818103600083015261287381846127e4565b905092915050565b612884816124db565b82525050565b600060208201905061289f600083018461287b565b92915050565b6000806000606084860312156128be576128bd612364565b5b60006128cc868287016125b1565b93505060206128dd868287016125b1565b92505060406128ee868287016124fc565b9150509250925092565b6129018161271d565b82525050565b600060408201905061291c60008301856128f8565b61292960208301846123ff565b9392505050565b612939816123f3565b811461294457600080fd5b50565b60008135905061295681612930565b92915050565b6000806040838503121561297357612972612364565b5b6000612981858286016125b1565b925050602061299285828601612947565b9150509250929050565b600080fd5b600080fd5b7f4e487b7100000000000000000000000000000000000000000000000000000000600052604160045260246000fd5b6129de8261246f565b810181811067ffffffffffffffff821117156129fd576129fc6129a6565b5b80604052505050565b6000612a1061235a565b9050612a1c82826129d5565b919050565b600067ffffffffffffffff821115612a3c57612a3b6129a6565b5b612a458261246f565b9050602081019050919050565b82818337600083830152505050565b6000612a74612a6f84612a21565b612a06565b905082815260208101848484011115612a9057612a8f6129a1565b5b612a9b848285612a52565b509392505050565b600082601f830112612ab857612ab761299c565b5b8135612ac8848260208601612a61565b91505092915050565b60008060008060808587031215612aeb57612aea612364565b5b6000612af9878288016125b1565b9450506020612b0a878288016125b1565b9350506040612b1b878288016124fc565b925050606085013567ffffffffffffffff811115612b3c57612b3b612369565b5b612b4887828801612aa3565b91505092959194509250565b600080fd5b600080fd5b60008083601f840112612b7457612b7361299c565b5b8235905067ffffffffffffffff811115612b9157612b90612b54565b5b602083019150836001820283011115612bad57612bac612b59565b5b9250929050565b60038110612bc157600080fd5b50565b600081359050612bd381612bb4565b92915050565b60008060008060608587031215612bf357612bf2612364565b5b6000612c01878288016125b1565b945050602085013567ffffffffffffffff811115612c2257612c21612369565b5b612c2e87828801612b5e565b93509350506040612c4187828801612bc4565b91505092959194509250565b60008060408385031215612c6457612c63612364565b5b6000612c72858286016125b1565b9250506020612c83858286016125b1565b9150509250929050565b7f4e487b7100000000000000000000000000000000000000000000000000000000600052602260045260246000fd5b60006002820490506001821680612cd457607f821691505b602082108103612ce757612ce6612c8d565b5b50919050565b7f4e487b7100000000000000000000000000000000000000000000000000000000600052603260045260246000fd5b7f4e487b7100000000000000000000000000000000000000000000000000000000600052601160045260246000fd5b6000612d56826124db565b91507fffffffffffffffffffffffffffffffffffffffffffffffffffffffffffffffff8203612d8857612d87612d1c565b5b600182019050919050565b7f4f6e6c792074686520766f7563686572206f776e65722063616e20726564656560008201527f6d2e000000000000000000000000000000000000000000000000000000000000602082015250565b6000612def602283612434565b9150612dfa82612d93565b604082019050919050565b60006020820190508181036000830152612e1e81612de2565b9050919050565b6000606082019050612e3a6000830186612570565b612e47602083018561287b565b612e546040830184612570565b949350505050565b600081905092915050565b6000612e7282612429565b612e7c8185612e5c565b9350612e8c818560208601612445565b80840191505092915050565b6000612ea48285612e67565b9150612eb08284612e67565b91508190509392505050565b7f5468697320766f75636865722068617320616c7265616479206265656e20726560008201527f6465656d65642e00000000000000000000000000000000000000000000000000602082015250565b6000612f18602783612434565b9150612f2382612ebc565b604082019050919050565b60006020820190508181036000830152612f4781612f0b565b9050919050565b600081519050919050565b600082825260208201905092915050565b6000612f7582612f4e565b612f7f8185612f59565b9350612f8f818560208601612445565b612f988161246f565b840191505092915050565b6000608082019050612fb86000830187612570565b612fc56020830186612570565b612fd2604083018561287b565b8181036060830152612fe48184612f6a565b905095945050505050565b600081519050612ffe8161239a565b92915050565b60006020828403121561301a57613019612364565b5b600061302884828501612fef565b91505092915050565b60008190508160005260206000209050919050565b60006020601f8301049050919050565b600082821b905092915050565b6000600883026130937fffffffffffffffffffffffffffffffffffffffffffffffffffffffffffffffff82613056565b61309d8683613056565b95508019841693508086168417925050509392505050565b6000819050919050565b60006130da6130d56130d0846124db565b6130b5565b6124db565b9050919050565b6000819050919050565b6130f4836130bf565b613108613100826130e1565b848454613063565b825550505050565b600090565b61311d613110565b6131288184846130eb565b505050565b5b8181101561314c57613141600082613115565b60018101905061312e565b5050565b601f8211156131915761316281613031565b61316b84613046565b8101602085101561317a578190505b61318e61318685613046565b83018261312d565b50505b505050565b600082821c905092915050565b60006131b460001984600802613196565b1980831691505092915050565b60006131cd83836131a3565b9150826002028217905092915050565b6131e682612429565b67ffffffffffffffff8111156131ff576131fe6129a6565b5b6132098254612cbc565b613214828285613150565b600060209050601f8311600181146132475760008415613235578287015190505b61323f85826131c1565b8655506132a7565b601f19841661325586613031565b60005b8281101561327d57848901518255600182019150602085019450602081019050613258565b8683101561329a5784890151613296601f8916826131a3565b8355505b6001600288020188555050505b505050505050565b7f4e487b7100000000000000000000000000000000000000000000000000000000600052601260045260246000fd5b60006040820190506132f36000830185612570565b613300602083018461287b565b939250505056fea2646970667358221220b5b837fb4c44eb0203e9defef4fecf62cc003700d6e4b71e35bc9b8573701fd164736f6c63430008140033",
  "linkReferences": {},
  "deployedLinkReferences": {}
}